{
  "_format": "hh-sol-artifact-1",
  "contractName": "SimpleLudo",
  "sourceName": "contracts/SimpleLudo.sol",
  "abi": [
    {
      "inputs": [
        {
          "internalType": "address",
          "name": "",
          "type": "address"
        }
      ],
      "name": "_players",
      "outputs": [
        {
          "internalType": "address",
          "name": "playerAddress",
          "type": "address"
        },
        {
          "internalType": "bool",
          "name": "hasWon",
          "type": "bool"
        },
        {
          "internalType": "bool",
          "name": "hasStarted",
          "type": "bool"
        },
        {
          "internalType": "uint256",
          "name": "position",
          "type": "uint256"
        }
      ],
      "stateMutability": "view",
      "type": "function"
    },
    {
      "inputs": [],
      "name": "finishLine",
      "outputs": [
        {
          "internalType": "uint256",
          "name": "",
          "type": "uint256"
        }
      ],
      "stateMutability": "view",
      "type": "function"
    },
    {
      "inputs": [],
      "name": "joinGame",
      "outputs": [],
      "stateMutability": "nonpayable",
      "type": "function"
    },
    {
      "inputs": [],
      "name": "rollDice",
      "outputs": [],
      "stateMutability": "view",
      "type": "function"
    },
    {
      "inputs": [],
      "name": "startLine",
      "outputs": [
        {
          "internalType": "uint256",
          "name": "",
          "type": "uint256"
        }
      ],
      "stateMutability": "view",
      "type": "function"
    }
  ],
  "bytecode": "0x608060405234801561001057600080fd5b506108af806100206000396000f3fe608060405234801561001057600080fd5b50600436106100575760003560e01c80637a93ca351461005c578063837e7cc61461007a578063cc3590bb14610084578063d4f77b1c146100a2578063e39f0d64146100ac575b600080fd5b6100646100df565b604051610071919061054e565b60405180910390f35b6100826100e4565b005b61008c610141565b604051610099919061054e565b60405180910390f35b6100aa610146565b005b6100c660048036038101906100c191906105cc565b6102d6565b6040516100d69493929190610623565b60405180910390f35b600081565b6000424340336040516020016100fc939291906106fc565b6040516020818303038152906040528051906020012060001c9050600060016006836101289190610768565b61013291906107c8565b905061013d81610340565b5050565b603481565b600060149054906101000a900460ff1615610196576040517f08c379a000000000000000000000000000000000000000000000000000000000815260040161018d90610859565b60405180910390fd5b60026040518060a001604052803373ffffffffffffffffffffffffffffffffffffffff1681526020016040518060800160405280600081526020016000815260200160008152602001600081525081526020016000151581526020016000151581526020016000815250908060018154018082558091505060019003906000526020600020906007020160009091909190915060008201518160000160006101000a81548173ffffffffffffffffffffffffffffffffffffffff021916908373ffffffffffffffffffffffffffffffffffffffff1602179055506020820151816001019060046102879291906104d8565b5060408201518160050160006101000a81548160ff02191690831515021790555060608201518160050160016101000a81548160ff021916908315150217905550608082015181600601555050565b60016020528060005260406000206000915090508060000160009054906101000a900473ffffffffffffffffffffffffffffffffffffffff16908060050160009054906101000a900460ff16908060050160019054906101000a900460ff16908060060154905084565b6000600160003373ffffffffffffffffffffffffffffffffffffffff1673ffffffffffffffffffffffffffffffffffffffff1681526020019081526020016000206040518060a00160405290816000820160009054906101000a900473ffffffffffffffffffffffffffffffffffffffff1673ffffffffffffffffffffffffffffffffffffffff1673ffffffffffffffffffffffffffffffffffffffff1681526020016001820160048060200260405190810160405280929190826004801561041e576020028201915b81548152602001906001019080831161040a575b505050505081526020016005820160009054906101000a900460ff161515151581526020016005820160019054906101000a900460ff161515151581526020016006820154815250509050806060015115801561047e575060068260ff16145b156104955760018160600190151590811515815250505b8060600151156104d4578160ff16816080018181516104b491906107c8565b9150818152505060348160800151106104d35760348160800181815250505b5b5050565b8260048101928215610507579160200282015b828111156105065782518255916020019190600101906104eb565b5b5090506105149190610518565b5090565b5b80821115610531576000816000905550600101610519565b5090565b6000819050919050565b61054881610535565b82525050565b6000602082019050610563600083018461053f565b92915050565b600080fd5b600073ffffffffffffffffffffffffffffffffffffffff82169050919050565b60006105998261056e565b9050919050565b6105a98161058e565b81146105b457600080fd5b50565b6000813590506105c6816105a0565b92915050565b6000602082840312156105e2576105e1610569565b5b60006105f0848285016105b7565b91505092915050565b6106028161058e565b82525050565b60008115159050919050565b61061d81610608565b82525050565b600060808201905061063860008301876105f9565b6106456020830186610614565b6106526040830185610614565b61065f606083018461053f565b95945050505050565b6000819050919050565b61068361067e82610535565b610668565b82525050565b6000819050919050565b6000819050919050565b6106ae6106a982610689565b610693565b82525050565b60008160601b9050919050565b60006106cc826106b4565b9050919050565b60006106de826106c1565b9050919050565b6106f66106f18261058e565b6106d3565b82525050565b60006107088286610672565b602082019150610718828561069d565b60208201915061072882846106e5565b601482019150819050949350505050565b7f4e487b7100000000000000000000000000000000000000000000000000000000600052601260045260246000fd5b600061077382610535565b915061077e83610535565b92508261078e5761078d610739565b5b828206905092915050565b7f4e487b7100000000000000000000000000000000000000000000000000000000600052601160045260246000fd5b60006107d382610535565b91506107de83610535565b92508282019050808211156107f6576107f5610799565b5b92915050565b600082825260208201905092915050565b7f67616d6553746172746564000000000000000000000000000000000000000000600082015250565b6000610843600b836107fc565b915061084e8261080d565b602082019050919050565b6000602082019050818103600083015261087281610836565b905091905056fea2646970667358221220fa3970e10809db3848a8e15b790d6518e3b4881878e3b6865195094b185cc32164736f6c63430008180033",
  "linkReferences": {},
  "deployedLinkReferences": {}
}